{
  "contractName": "UsersContract",
  "abi": [
    {
      "constant": true,
      "inputs": [
        {
          "name": "",
          "type": "uint256"
        }
      ],
      "name": "users",
      "outputs": [
        {
          "name": "firstName",
          "type": "string"
        },
        {
          "name": "lastName",
          "type": "string"
        },
        {
          "name": "userName",
          "type": "string"
        },
        {
          "name": "password",
          "type": "string"
        },
        {
          "name": "userid",
          "type": "address"
        }
      ],
      "payable": false,
      "stateMutability": "view",
      "type": "function",
      "signature": "0x365b98b2"
    },
    {
      "constant": false,
      "inputs": [
        {
          "name": "_firstName",
          "type": "string"
        },
        {
          "name": "_lastName",
          "type": "string"
        },
        {
          "name": "_userName",
          "type": "string"
        },
        {
          "name": "_password",
          "type": "string"
        }
      ],
      "name": "createUser",
      "outputs": [],
      "payable": false,
      "stateMutability": "nonpayable",
      "type": "function",
      "signature": "0x6f7fcddb"
    },
    {
      "constant": true,
      "inputs": [],
      "name": "getUserCount",
      "outputs": [
        {
          "name": "",
          "type": "uint256"
        }
      ],
      "payable": false,
      "stateMutability": "view",
      "type": "function",
      "signature": "0xb5cb15f7"
    }
  ],
  "bytecode": "0x6080604052600060015534801561001557600080fd5b50610906806100256000396000f3fe6080604052600436106100565763ffffffff7c0100000000000000000000000000000000000000000000000000000000600035041663365b98b2811461005b5780636f7fcddb14610262578063b5cb15f7146104ac575b600080fd5b34801561006757600080fd5b506100856004803603602081101561007e57600080fd5b50356104d3565b60405180806020018060200180602001806020018673ffffffffffffffffffffffffffffffffffffffff1673ffffffffffffffffffffffffffffffffffffffff16815260200185810385528a818151815260200191508051906020019080838360005b838110156101005781810151838201526020016100e8565b50505050905090810190601f16801561012d5780820380516001836020036101000a031916815260200191505b5085810384528951815289516020918201918b019080838360005b83811015610160578181015183820152602001610148565b50505050905090810190601f16801561018d5780820380516001836020036101000a031916815260200191505b5085810383528851815288516020918201918a019080838360005b838110156101c05781810151838201526020016101a8565b50505050905090810190601f1680156101ed5780820380516001836020036101000a031916815260200191505b50858103825287518152875160209182019189019080838360005b83811015610220578181015183820152602001610208565b50505050905090810190601f16801561024d5780820380516001836020036101000a031916815260200191505b50995050505050505050505060405180910390f35b34801561026e57600080fd5b506104aa6004803603608081101561028557600080fd5b8101906020810181356401000000008111156102a057600080fd5b8201836020820111156102b257600080fd5b803590602001918460018302840111640100000000831117156102d457600080fd5b91908080601f016020809104026020016040519081016040528093929190818152602001838380828437600092019190915250929594936020810193503591505064010000000081111561032757600080fd5b82018360208201111561033957600080fd5b8035906020019184600183028401116401000000008311171561035b57600080fd5b91908080601f01602080910402602001604051908101604052809392919081815260200183838082843760009201919091525092959493602081019350359150506401000000008111156103ae57600080fd5b8201836020820111156103c057600080fd5b803590602001918460018302840111640100000000831117156103e257600080fd5b91908080601f016020809104026020016040519081016040528093929190818152602001838380828437600092019190915250929594936020810193503591505064010000000081111561043557600080fd5b82018360208201111561044757600080fd5b8035906020019184600183028401116401000000008311171561046957600080fd5b91908080601f01602080910402602001604051908101604052809392919081815260200183838082843760009201919091525092955061074d945050505050565b005b3480156104b857600080fd5b506104c161083b565b60408051918252519081900360200190f35b6000602081815291815260409081902080548251601f6002600019610100600186161502019093169290920491820185900485028101850190935280835290928391908301828280156105675780601f1061053c57610100808354040283529160200191610567565b820191906000526020600020905b81548152906001019060200180831161054a57829003601f168201915b505050505090806001018054600181600116156101000203166002900480601f0160208091040260200160405190810160405280929190818152602001828054600181600116156101000203166002900480156106055780601f106105da57610100808354040283529160200191610605565b820191906000526020600020905b8154815290600101906020018083116105e857829003601f168201915b50505060028085018054604080516020601f60001961010060018716150201909416959095049283018590048502810185019091528181529596959450909250908301828280156106975780601f1061066c57610100808354040283529160200191610697565b820191906000526020600020905b81548152906001019060200180831161067a57829003601f168201915b5050505060038301805460408051602060026001851615610100026000190190941693909304601f81018490048402820184019092528181529495949350908301828280156107275780601f106106fc57610100808354040283529160200191610727565b820191906000526020600020905b81548152906001019060200180831161070a57829003601f168201915b5050506004909301549192505073ffffffffffffffffffffffffffffffffffffffff1685565b600180548101908190556040805160a0810182528681526020808201879052818301869052606082018590523360808301526000938452838152919092208251805191926107a092849290910190610842565b5060208281015180516107b99260018501920190610842565b50604082015180516107d5916002840191602090910190610842565b50606082015180516107f1916003840191602090910190610842565b50608091909101516004909101805473ffffffffffffffffffffffffffffffffffffffff191673ffffffffffffffffffffffffffffffffffffffff90921691909117905550505050565b6001545b90565b828054600181600116156101000203166002900490600052602060002090601f016020900481019282601f1061088357805160ff19168380011785556108b0565b828001600101855582156108b0579182015b828111156108b0578251825591602001919060010190610895565b506108bc9291506108c0565b5090565b61083f91905b808211156108bc57600081556001016108c656fea165627a7a72305820f85f2b5dc72588a899a2320db6018afcfc0b86e86f9133eb810f6a468a0ae8bc0029",
  "source": "pragma solidity ^0.5.0;\n\ncontract UsersContract{\n    struct UserInfo{\n        string firstName;\n        string lastName;\n        string userName;\n        string password;\n        address userid;\n        \n    }\n    \n    \n    mapping (uint=>UserInfo) public users;\n    \n    uint userCount=0;\n\n    \n    function createUser(string memory _firstName, string memory  _lastName, string memory _userName, string memory _password) public {\n        // Retrieving the userInfo based on the address that we need to insert\n        userCount++;\n        users[userCount] = UserInfo(_firstName, _lastName, _userName, _password, msg.sender);\n        \n    }\n    \n    function getUserCount() public view returns(uint ){\n        return userCount;\n    }\n\n}",
  "sourcePath": "/Users/suresh/yoorz/contracts/UserContract.sol",
  "compiler": {
    "name": "solc",
    "version": "0.5.0+commit.1d4f565a.Emscripten.clang"
  },
  "schemaVersion": "3.0.1",
  "updatedAt": "2020-06-04T05:06:36.750Z",
  "devdoc": {
    "methods": {}
  },
  "userdoc": {
    "methods": {}
  }
}